:020000040800F2
:100000003809002089010008212A00083D2700083E
:100010001D2A0008450200084D2E000800000000BF
:10002000000000000000000000000000292A000875
:100030006102000800000000252A00082D2A00089F
:10004000A3010008A3010008A3010008A301000800
:10005000A3010008A3010008A3010008A3010008F0
:10006000A3010008A3010008A3010008A3010008E0
:10007000A3010008A3010008A3010008550200081D
:10008000A3010008A3010008A3010008A3010008C0
:10009000A301000849020008A3010008A301000809
:1000A000A3010008A3010008A3010008A3010008A0
:1000B000352A0008A3010008A3010008A3010008D5
:1000C000A3010008A3010008A3010008A301000880
:1000D000A3010008412E0008A3010008A3010008A5
:1000E000A3010008A3010008A301000800F002F822
:1000F00000F03AF80AA090E8000C82448344AAF188
:100100000107DA4501D100F02FF8AFF2090EBAE885
:100110000F0013F0010F18BFFB1A43F0010318473B
:100120003030000050300000103A24BF78C878C149
:10013000FAD8520724BF30C830C144BF04680C60ED
:10014000704700000023002400250026103A28BF35
:1001500078C1FBD8520728BF30C148BF0B60704739
:100160001FB51FBD10B510BD00F031F81146FFF7E7
:10017000F7FF02F06DFE00F04FF803B4FFF7F2FF57
:1001800003BC00F057F800000948804709480047C1
:10019000FEE7FEE7FEE7FEE7FEE7FEE7FEE7FEE737
:1001A000FEE7FEE704480549054A064B7047000094
:1001B000312A0008ED00000838030020380900202B
:1001C0003805002038050020704770477047754695
:1001D00000F02CF8AE4605006946534620F00700B3
:1001E000854618B020B5FFF7DDFFBDE820404FF091
:1001F00000064FF000074FF000084FF0000BAC4630
:10020000ACE8C009ACE8C009ACE8C009ACE8C0097A
:1002100021F007018D46704710B50446AFF300800A
:100220002046BDE81040FFF7A8BF00000048704717
:100230001000002001491820ABBEFEE72600020096
:1002400070470000FEE7000040F2DC00C2F2000050
:1002500000F064B840F20410C2F2000000F012BBDB
:1002600070470000EFF3108072B600BFFEE7000099
:1002700010B590F820E0D0F800C0AEF1010EBEF14C
:10028000010FDCF808E011D81EF0E05F18D0CEF3C3
:10029000016E012000FA0EF018608B68D3B1486837
:1002A000CC6844EAC000034318E000BF00F1240119
:1002B00001204FF480220B681A430A6010BD00BF72
:1002C00000F1240101204FF400120B681A430A6068
:1002D00010BD00BF0868CB6843EA40530CEB0E101A
:1002E000C0F880310B69C0F88431097D012905D13E
:1002F00000F5C2710B6843F480730B605168C0F85D
:100300008C11126800F5C071C0F88821002001220C
:100310000B681A430A6010BD704700002DE9F04FCA
:1003200081B0044600684669D0F804908768D0F828
:100330000CB0D0F810A0D0F81880F10704D1002537
:1003400030071DD424E000BFF90710D00121BA07FF
:10035000816009D4780700F1AF80380700F1B680DA
:10036000204600F003FA02E0204600F001FA0025E2
:10037000F80500F18780F80300F1B180300707D558
:100380001BF0100004D0206845F400751021C160F6
:10039000700708D51BF0080005D020680821C1604F
:1003A000204600F0ABF9B00706D52068C06880078A
:1003B00002D0204600F0A4F9700607D51AF010000C
:1003C00004D0206845F4806510210161B00608D58D
:1003D0001AF0080005D0206808210161204600F0CD
:1003E00091F9F00606D520680069800702D0204602
:1003F00000F08AF9B00308D519F0100005D0206884
:1004000010214160204600F081F9F00308D519F071
:10041000080005D0206808214160204600F0B2F9AC
:10042000300440F19B805FEA497040F1948006F40B
:10043000807008EA102028435FEA8871014648BFAF
:1004400041F00201B20558BF01465FEA48700D460F
:1004500048BF45F00405700558BF0D46300540F112
:100460007A8018F0700000F07680103800090528B6
:100470006CD8DFE800F003595D61656945F0080557
:1004800064E000BF20684FF48071BA0581600BD42E
:10049000780515D438051DD4204600F06BF9F80313
:1004A0007FF56CAF1BE000BF204600F065F9F80354
:1004B0007FF564AF13E000BF4FF4006558E700BF5D
:1004C00005F50055F8037FF559AF08E04FF4805566
:1004D0004EE700BF05F58045F8037FF54FAF206874
:1004E0004FF48031BA0381600AD4780310D4380302
:1004F00014D4204600F042F930073FF541AF47E7FA
:10050000204600F03DF930073FF53AAF40E700BF25
:1005100005F5004530073FF533AF39E705F5803580
:1005200030073FF52DAF33E745F010050EE000BF73
:1005300045F020050AE000BF45F0400506E000BF99
:1005400045F0800502E000BF45F4807520688169B0
:1005500021F07001816120680421416055B1606A19
:1005600040EA05012046616201B0BDE8F04FFFF7A7
:10057000D3BE00BF01B0BDE8F08F0000B0B5C8B178
:10058000044690F8200010B9204600F071F8206869
:10059000016841F00101016000F0E4FB054600BF85
:1005A00020684168C90707D100F0DCFB401B0B281D
:1005B000F6D312E00120B0BD016821F00201016014
:1005C00000F0D0FB054600BF2068416889070DD5C3
:1005D00000F0C8FB401B0B28F6D3606A052140F4ED
:1005E00000306062012084F82010B0BD217E0268D6
:1005F000012922F0800208BF80320260617E026819
:10060000012922F0400208BF40320260A17E026848
:10061000012922F0200208BF20320260E17E026838
:10062000012922F0100218BF10320260217F0268F7
:10063000012922F0080208BF08320260617F0268C7
:10064000012922F0040208BF04320260D4E901C289
:10065000D4E9033561691A432A431143ACF101021D
:100660001143C16100200121606284F82010B0BDF7
:10067000B0B586B040F60004C4F201040068A4F5E9
:10068000244200219042059102D006B0B0BD00BFC7
:1006900041F21800C4F20200426802AD42F000725A
:1006A0004260426802F000720192019A026842F0D0
:1006B00004020260006800F00400019001984FF409
:1006C0000060CDE9020104912046294600F03CFA81
:1006D0004FF48050029002200390032005902046A2
:1006E000294600F031FA15200021002200F0BCFB61
:1006F000152000F0A5FB06B0B0BD0000704700005B
:10070000704700007047000070470000704700000D
:10071000B0B5044690F8200001281DD1022084F8CD
:1007200020002068016821F00101016000F01AFB3F
:10073000054600BF20684068C00713D000F012FBD8
:10074000401B0B28F6D3606A40F40030606205203D
:1007500084F820000120B0BD606A40F4002060628F
:100760000120B0BD00206062B0BD000070470000F5
:10077000704700007047000070470000704700009D
:100780007047000070470000014690F821000228E1
:1007900016D10868D1E90FC3026822F00E02026088
:1007A000026822F001020260012000FA03F2CCF894
:1007B000042081F821000020002281F820207047C9
:1007C000042088630120002281F820207047000067
:1007D00080B590F82110022924D10268116821F017
:1007E0000E0111602F211368C4F202018A4240F207
:1007F0000401C4F2020123F00103136016DD30236B
:10080000C4F202039A421DD04423C4F202039A4266
:100810001CD05823C4F202039A421DD14FF48033F6
:1008200022E000BF04218163012080BD0823C4F2BF
:1008300002039A420ED01C23C4F202039A420BD147
:10084000102311E04FF480730EE000BF4FF480538B
:100850000AE000BF012307E001F1680C4FF080734C
:10086000624508BF4FF480130B60012180F821100E
:10087000426B002180F820100AB190470021084601
:1008800080BD000010B5D0E90FCE0168DCF8003063
:100890000A6823FA0EF35C072AD512F0040427D065
:1008A0000A68920603D40A6822F004020A602F2222
:1008B000C4F20202914240F20402C4F202025BDD81
:1008C0003023C4F20203994272D04423C4F20203DB
:1008D000994273D05823C4F20203994240F07A80BF
:1008E0004FF480231360C16A002940F098806FE0C4
:1008F0009C0727D512F0020424D00A68920606D479
:100900000A6822F00A020A60012280F821202F22C0
:10091000C4F20202914240F20402C4F202023BDD40
:100920003023C4F20203994260D04423C4F202038C
:1009300099425FD05823C4F20203994260D14FF428
:10094000003365E01B0743D512F0080208BF10BD55
:100950000A6822F00E020A60012101FA0EF2CCF8B8
:100960000420816380F82110016B0022002980F8A7
:10097000202054D12CE000BF0823C4F20203994286
:1009800022D01C23C4F20203994223D140231360D6
:10099000C16A002943D11BE00823C4F20203994233
:1009A0002CD01C23C4F20203994229D120232FE02A
:1009B0004FF480631360C16A89BB09E04FF4804340
:1009C0001360C16A59BB03E004231360C16A31BBE1
:1009D00010BD00BF02F168044FF08063A14208BF60
:1009E0004FF480031360C16AC9B9F1E74FF4007393
:1009F0000EE000BF4FF400530AE000BF022307E0FF
:100A000002F168044FF00073A14208BF4FF40013D5
:100A10001360816A0022002980F82020D8D0BDE828
:100A200010400847014600284FF0010008BF7047FA
:100A30002DE9F043D1F800C04FF6F873CBF6FD7303
:100A40004CF6CD426344CCF6CC42A3FB02236FF0BC
:100A5000030707EA93030027C4F2020701F10C0918
:100A6000C1E90F730223D1E9012E99E87002D1F890
:100A70001C8081F82130DCF8003043F6F077BB436E
:100A80001A4342EA0E0222432A43324342EA09024F
:100A900042EA0802CCF8002000228A6381F8210093
:100AA00081F820200020BDE8F0437047F0B590F8B1
:100AB00020C0BCF1010F32D04FF0010E80F820E0D1
:100AC00090F821C0BCF1010F26D14FF0020C80F844
:100AD00021C04FF0000CC0F838C0D0E900C4C56A8E
:100AE000C66BDCF80070102C27F00107CCF8007002
:100AF000006C0EFA00F070600846CCF8043004BFB9
:100B000010460A46CCF80800CCF80C20DCF80000AF
:100B100045B140F00E000DE0002180F820100220C9
:100B2000F0BD00BF20F00400CCF80000DCF80000AD
:100B300040F00A00CCF80000DCF8000040F00100B2
:100B4000CCF800000020F0BD2DE9F04F82B00E6817
:100B5000002E00F0038141F20042C4F2010204239E
:100B600040F2004E904208BF03234FF6FF7CC4F2D0
:100B7000010E009300240123C1F2100C4FF0000A73
:100B80004FF0000949E000BF012704F00C030F22D9
:100B90009A402BEA020207FA03F34FEA9A051A4336
:100BA00046F82520D1F804B040F20C455FEACB228C
:100BB000DEF8082054BF22EA080242EA0802C4F222
:100BC0000105CEF808202A685FEA8B2354BF22EA89
:100BD000080242EA08022A605FEA8B33DEF804204A
:100BE00054BF22EA080242EA08025FEACB33CEF899
:100BF0000420DEF800204FF0010354BF22EA08026F
:100C000042EA0802CEF800200E680AF1010A36FA1C
:100C10000AF204F1040400F0A18003FA0AF816EACB
:100C2000080FF1D04E68664512DC122E56D8DFE868
:100C300006F0350B4549555555555555555555559E
:100C40005555554D510000BFD1F80C9046E000BFFE
:100C50004FF6FF72C1F2210296420FDC0022C1F270
:100C6000110296421AD00022C1F21202964215D009
:100C70000022C1F22102964210D02FE00022C1F2E0
:100C8000220296420AD00022C1F23102964205D0D9
:100C90000022C1F23202964220D100BF8A684AB1D6
:100CA000012A14BFC0F81480C0F810804FF0080962
:100CB00014E000BF4FF0040910E000BFCA6802F161
:100CC00008090BE04FF0000908E000BFCA6802F114
:100CD000040903E0CA6802F10C0900BF2246064677
:100CE000BAF1080F24BF203A043637680F25954023
:100CF00027EA050509FA02F22A433260CA79D206C8
:100D00007FF582AF41F21803C4F202031A68AEF510
:100D10007E7642F001021A601A6802F00102019226
:100D2000019A2AF0030256F802B040F60002C4F21B
:100D30000102904210D040F60042C4F201029042FB
:100D40003FF422AF41F20002C4F20102009F904240
:100D500008BF022719E700BF002716E702B0BDE869
:100D6000F08F000040F2B020C2F20000006870472F
:100D700040F2000040F2B021C2F20000C2F20001D5
:100D800000780A68104408607047000080B542F29D
:100D90000000C4F20200016841F01001016003206C
:100DA00000F08EF80F2000F005F800F027F8002082
:100DB00080BD000070B540F20006C2F2000640F2AD
:100DC00008013278C2F200014FF47A730968B3FB6C
:100DD000F2F20446B1FBF2F1084600F063FB0F2C7F
:100DE0004FF0010508D838B94FF0FF3021460022F6
:100DF000002500F039F87460284670BD82B041F2D9
:100E00001800C4F202000168022241F001010160F1
:100E1000016801F0010101910199416841F080519F
:100E20004160406800F08050009000980420C4F2B7
:100E30000100016862F31A61016002B070470000AE
:100E4000002848BF7047C1B200F01F00012202FA1B
:100E500000F04EF20012CEF2000242EAD10121F07F
:100E6000030108607047000010B54EF60C5CCEF22E
:100E7000000CDCF80030C3F3022E8EF00704042CC3
:100E800028BF0424BEF103034FF0FF3E0EFA04F422
:100E900038BF0023A14399400EFA03F39A4311434C
:100EA00000F00F0200F160430901043A03F56443C6
:100EB0006244002848BF02F10C03197010BD000005
:100EC0004EF60C51CEF200010A684FF6FF031A40AD
:100ED00060F30A2242F0806040F0FD7008607047C5
:100EE0002DE9F04381B0002800F0858042F200082F
:100EF000C4F202080446D8F800000D4600F00700CE
:100F000088420CD2D8F8000020F007002843C8F827
:100F10000000D8F8000000F00700A8426BD120685C
:100F200041F204098107C4F2020917D5410705D52A
:100F3000D9F8001041F4E061C9F80010010705D5A7
:100F4000D9F8001041F46051C9F80010D9F8001028
:100F5000A26821F0F0011143C9F80010C00741D187
:100F6000D8F8000000F00700A8420CD9D8F800001B
:100F700020F007002843C8F80000D8F8000000F06F
:100F80000700A84237D12068410707D5D9F80010DB
:100F9000E26821F4E0611143C9F80010000708D5A8
:100FA000D9F80000216920F4605040EAC100C9F876
:100FB0000000D9F8002002F00C00082841F20020BF
:100FC000C0F27A0050D143F24013C2F38341C0F61D
:100FD0000003595CD2033BD440F60010C0F23D0040
:100FE000484341E0606802280AD001282AD159F814
:100FF000041C890308D4012001B0BDE8F08300BFC0
:1010000059F8041C8901F6D5D9F8001021F0030124
:101010000843C9F80000FFF7A5FE064641F28837ED
:10102000D9F80000616800F00C00B0EB810F97D098
:10103000FFF798FE801BB842F2D9032001B0BDE84B
:10104000F08300BF59F8041C8907D4D5DCE700BF42
:10105000D9F8002043F23E13C2F34042C0F6000329
:101060009A5C4843B0FBF2F0D9F8001043F2261224
:10107000C1F30311C0F60002515C40F2080220FAED
:1010800001F140F20400C2F200000068C2F2000266
:101090001160FFF78FFE002001B0BDE8F083000073
:1010A00040F2080041F20401C2F20000C4F2020161
:1010B0000068096843F23612C1F30221C0F600024B
:1010C000515CC8407047000040F2080041F2040142
:1010D000C2F20000C4F202010068096843F236124D
:1010E000C1F3C221C0F60002515CC8407047000045
:1010F0002DE9F04182B0002868D00446007841F222
:101100000006C007C4F2020625D0706800F00C008B
:1011100004281BD0706800F00C00082802D1706809
:10112000C00313D46068002800F06881B0F5A02FD8
:1011300000F07C81B0F5803F00F07C81306820F4C5
:1011400080303060306820F4802076E130688003A1
:1011500001D56068D0B32078800718D5706810F08A
:101160000C0F07D0706800F00C0008286ED1706872
:10117000C0036BD43068800702D52069012825D1CF
:101180003068616920F0F80040EAC10030602078E2
:1011900000071FD42078400732D4E56995B1706804
:1011A00000F00C00082840F08F80012D0ED07068F0
:1011B000216A00F480328A4208D1616A00F470101A
:1011C000884203D1002002B0BDE8F081012002B0C6
:1011D000BDE8F081A069002862D00020C4F242205E
:1011E0000121C0F88014FFF7BDFD0546706A800735
:1011F00000F18C80FFF7B6FD401B0228F6D92AE1EA
:10120000F06910F0805808D1F06940F08050F0612A
:10121000F06900F080500090009847F20007C4F297
:1012200000073868C00529D4386840F480703860F9
:10123000FFF798FD054600BF3868C0051ED4FFF7CC
:1012400091FD401B6428F7D905E100BF2069002803
:1012500040F20000C4F2422000F0828001210160CF
:10126000FFF780FD054600BF306880073FF588AF77
:10127000FFF778FD401B0228F6D9ECE0E068002873
:1012800000F08080052800F09780012800F0988009
:10129000306A20F001003062306A20F0040092E0F1
:1012A0000020C4F242200021C0F88014FFF75AFD4C
:1012B000054600BF706A80077FF56CAFFFF752FDEF
:1012C000401B0228F6D9C6E00027C4F242270020BE
:1012D0003866FFF747FD022D05460BD130688001C7
:1012E00040F1BE80FFF73EFD401B02284FF0030097
:1012F000F4D968E7306880017FF564AFFFF732FD0D
:10130000401B02284FF00300F4D95CE740F20800CC
:10131000C2F20000006844F6D351C1F26201A0FBA2
:101320000101480A019000BF00BF0198411E00283A
:1013300001913FF42FAF00BF0198411E0028019199
:101340003FF428AF00BF0198411E002801913FF4EF
:1013500021AF00BF0198411E00280191E4D119E797
:1013600000210160FFF7FEFC054600BF30688007E2
:101370007FF50DAFFFF7F6FC401B02284FF003008E
:10138000F4D920E7306A20F001003062306A20F0A2
:1013900004003062FFF7E6FC054641F2883700BFE3
:1013A000306A800720D5FFF7DDFC401BB8424FF0C4
:1013B0000300F5D907E700BF306A40F0040030624F
:1013C000306A40F001003062FFF7CCFC054641F284
:1013D000883700BF306A800706D4FFF7C3FC401B84
:1013E000B842F7D937E000BFB8F1000F7FF4D5AEAF
:1013F000F06920F08050F061CFE600BF306820F443
:1014000080303060306820F480203060FFF7AAFC24
:10141000054600BF306880037FF59DAEFFF7A2FC54
:10142000401B64284FF00300F4D9CCE6306840F448
:1014300080203060306840F480303060FFF792FCEC
:10144000054600BF306880033FF585AEFFF78AFC94
:10145000401B6428F6D9032002B0BDE8F08100BF2C
:10146000206AB0F5803F05D17168A26821F400318F
:10147000114371607168626A21F474111143084369
:10148000706001203866FFF76DFC0446306880010B
:101490003FF598AEFFF766FC001B02284FF00300F3
:1014A000F4D990E6411E0020B0EB116F1CBF012063
:1014B00070474EF21002CEF2000251604EF62351F8
:1014C000CEF20001F0230B7007219060116070478D
:1014D000704700007047000010B590F83C20012ACA
:1014E0004FF0020233D080F83D200268D2F804E0C9
:1014F000D2F808C00C682EF07003234340F2FF744A
:10150000C4F20004A24253600ADCB2F1804F13D04F
:1015100040F20043C4F200039A420DD011E000BF34
:1015200042F60043C4F201039A4205D040F600039C
:10153000C4F200039A4204D149682CF08003194395
:1015400091600121002280F83D1080F83C20104677
:1015500010BD0000002804BF0120704710B50446EC
:1015600090F83D0028B9002084F83C00204600F0A7
:101570006FF8022084F83D00206840F2FF73026893
:10158000C4F2000342F6004C9842C4F2010C15DC90
:10159000B0F1804F1AD040F20041C4F200018842FD
:1015A00014D0984218DCB0F1804F1DD040F20041B9
:1015B000C4F20001884217D01AE000BF604505D090
:1015C00040F60001C4F200018842EAD1A16822F08D
:1015D00070020A439842E6DD604505D040F60001FE
:1015E000C4F20001884203D1216922F440720A4307
:1015F000A36922F08001D4F804E0E2681943604551
:101600000160C262C0F828E002D16169CCF83010F4
:10161000012141610269D20703D0026922F001026F
:101620000261002084F8461084F83E1084F83F10D0
:1016300084F8401084F8411084F8421084F8431074
:1016400084F8441084F8451084F83D1010BD000063
:1016500080B582B00068B0F1804F1CBF02B080BD81
:1016600041F21C00C4F202000168002241F00101B5
:1016700001600068002100F00100019001981C2029
:10168000FFF7F2FB1C2002B0BDE88040FFF7D8BB9B
:1016900090F83D1001291CBF01207047022180F8FD
:1016A0003D10006840F2FF72C168C4F2000290422F
:1016B00041F00101C16009DCB0F1804F12D040F26D
:1016C0000041C4F2000188420CD012E042F6004111
:1016D000C4F20101884205D040F60001C4F20001C5
:1016E000884206D1816801F00701062904BF002065
:1016F0007047016841F0010101600020704700005F
:1017000080B590F83C20012A4FF0020200F0C28020
:1017100080F83D20D0F800C04FF67772DCF8083032
:1017200023EA0202CCF808200B684F2B28DC1F2B81
:1017300044DD202B45D0302B43D0402B40F0AC80F3
:10174000D1F804E0C968DCF82030DCF8202022F071
:101750000102CCF82020DCF8182022F0F00242EA46
:10176000011123F00A0242EA0E02CCF81810CCF85C
:101770002020DCF8081041F0470121F0300180E022
:101780006F2B27DDB3F5005F48D0B3F5805F7AD0CB
:10179000702B40F08180D1E901E3C968DCF80820B2
:1017A00043EA0E0322F47F4243EA01211143CCF8BD
:1017B0000810DCF8081041F0770162E00BB1102B43
:1017C0006AD1DCF8081021F07001194341F00701DB
:1017D00057E000BF502B35D0602B5DD1D1F804E02D
:1017E000C968DCF82030DCF8202022F01002CCF8A8
:1017F0002020DCF8182022F4704242EA013123F064
:10180000A00242EA0E12CCF81810CCF82020DCF826
:10181000081041F0670121F0100132E0D1E901E345
:10182000C968DCF8082043EA0E0322F47F4243EA49
:1018300001211143CCF80810DCF8081041F4804174
:101840001FE000BFD1F804E0C968DCF82030DCF804
:10185000202022F00102CCF82020DCF8182022F011
:10186000F00242EA011123F00A0242EA0E02CCF829
:101870001810CCF82020DCF8081041F0570121F0B6
:101880002001CCF808100022012180F83D10002131
:1018900080F83C10104680BD0122F5E7704700003B
:1018A00070B504460068C5680669B10716D515F01D
:1018B000020113D06FF002010161012121778069DB
:1018C000800703D02046FFF7E9FF05E0204600F03F
:1018D0008FF8204600F02CFA00202077700719D5E9
:1018E00015F0040016D020686FF004010161022198
:1018F0002177806910F4407F04D02046FFF7CEFFA7
:1019000006E000BF204600F073F8204600F010FA11
:1019100000202077300717D515F0080014D0206874
:101920006FF00801016104212177C069800703D0AD
:101930002046FFF7B3FF05E0204600F059F82046A7
:1019400000F0F6F900202077F00619D515F0100008
:1019500016D020686FF01001016108212177C0695D
:1019600010F4407F04D02046FFF798FF06E000BF48
:10197000204600F03DF8204600F0DAF900202077FC
:10198000F00718BF15F0010002D1300609D412E0AB
:1019900020686FF001010161204600F0CBF93006AC
:1019A00009D515F0800006D020686FF08001016134
:1019B0002046FFF78DFD700609D515F0400006D0D2
:1019C00020686FF040010161204600F0F7F9B00691
:1019D00058BF70BD15F0200008D021686FF02002BC
:1019E00020460A61BDE87040FFF774BD70BD00007D
:1019F000704700002DE9F04390F83C30012B04BF04
:101A00000220BDE8F0834FEAB202032A3CD8DFE8A7
:101A100002F0034381BD00BF036842F600461D6A21
:101A20001A6AC4F2010622F001021A621A465C68C0
:101A300052F818CFB3428E68D1F800E025F00205C5
:101A400045EA06050CD1CE68D1E9057824F4407446
:101A500025F00C0526F004063C43354344EA08040F
:101A60002CF0730747EA0E075C609F614F680969B5
:101A70005F631D629F6947F008079F619F6927F0B8
:101A800004079F61B2E000BF0121002280F83C20E2
:101A90000846BDE8F08300BF036842F600461D6AB1
:101AA0001A6AC4F2010622F010021A621A46D3F82A
:101AB00004C052F8184FB3428E68D1F800E025F008
:101AC000200545EA061510D1CE68D1E9058725F035
:101AD000C0096FF0400505EA06152CF4406647EA98
:101AE000080745EA090546EA870C24F4E64444EA77
:101AF0000E27C3F804C09F614F6809699F631D6288
:101B00009F6947F400679F619F6927F480679F6121
:101B10006BE000BF036842F600461D6A1A6AC4F211
:101B2000010622F480721A621A46D3F804C052F8F1
:101B30001CEFB3428E680C6825F4007545EA062553
:101B400011D1CE68D1E9058725F44069360240F20B
:101B5000FF4526EA05052CF4405647EA080745EA02
:101B6000090546EA071C2EF073072743C3F804C093
:101B7000DF614F680969DF631D62DF6947F00807AD
:101B8000DF61DF6927F00407DF612FE0036842F6B9
:101B90000047D3F820C01A6AC4F2010722F4805229
:101BA0001A621A465C6852F81C5FD1F800E08E6831
:101BB000BB4204D14F6924F4804444EA87142CF4D6
:101BC000005747EA063725F4E64646EA0E265C60EB
:101BD000DE614E6809691E641F62DF6947F40067B1
:101BE000DF61DF6927F48067DF6109021368194349
:101BF00011600021002280F83C200846BDE8F083F7
:101C0000002804BF0120704710B5044690F83D003D
:101C100028B9002084F83C00204600F06FF802202C
:101C200084F83D00206840F2FF730268C4F20003AC
:101C300042F6004C9842C4F2010C15DCB0F1804F22
:101C40001AD040F20041C4F20001884214D09842F8
:101C500018DCB0F1804F1DD040F20041C4F2000109
:101C6000884217D01AE000BF604505D040F6000159
:101C7000C4F200018842EAD1A16822F070020A434E
:101C80009842E6DD604505D040F60001C4F200014F
:101C9000884203D1216922F440720A43A36922F0E9
:101CA0008001D4F804E0E268194360450160C26233
:101CB000C0F828E002D16169CCF8301001214161FF
:101CC0000269D20703D0026922F0010202610020FA
:101CD00084F8461084F83E1084F83F1084F84010D1
:101CE00084F8411084F8421084F8431084F84410BA
:101CF00084F8451084F83D1010BD000081B00068E4
:101D000040F60001C4F20001884201D001B07047E2
:101D100041F21C00C4F20200016841F004010160BC
:101D2000006800F004000090009801B070470000C7
:101D30007047000040F24811C2F20001884218BF0B
:101D400070472DE9F04381B040F29004C2F20004E4
:101D500004F10C0001F0D6F8A089E18940F20112EB
:101D600025462070000A40F2DC0945F8182F607003
:101D7000080A261DC2F200094FF00408A170E070A5
:101D80004846294622463346C4F82880FEF770FAB2
:101D9000208A618A4FF481722070000A0F0A2A603B
:101DA000C4F828806070A170484629462246334610
:101DB000E77001B0BDE8F043FEF75ABA7047000083
:101DC0007047000070470000B0B582B0044600685C
:101DD0000168C368426901F02F05202D03F020053A
:101DE00006D12DB1204602B0BDE8B04000F0A8BF3A
:101DF0005FEA017C1EBF02F0010E03F4907212EB49
:101E00000E0253D1226B012A05D111F0100218BF26
:101E100013F0100236D10A0622D513F080021FD02B
:101E200094F8411021293FD1A168B1F5805F03D119
:101E30002169002900F07082216A4A1C2262097817
:101E40004160E18C01390A04E1842DD1C16821F09F
:101E50008001C160C16841F04001C16002B0B0BD05
:101E6000490621D513F040011ED0C16821F0400180
:101E7000C1602021204684F8411002B0BDE8B04086
:101E800000F05ABC00210191016801914168019163
:101E900001994069400613D4A08DE18DE28D002A9E
:101EA00018BF884240F0BA8102B0B0BDCA0718BF5F
:101EB00013F4807240F0B6804A0700F1B980BEE0AA
:101EC000E06B016849688AB2002AEDD0A38D9A427E
:101ED000EAD2E1858069202800F09C80206850E8E3
:101EE000030F216820F4807041E80302DAB1206812
:101EF00050E8030F216820F4807041E8030292B19A
:101F0000206850E8030F216820F4807041E8030244
:101F10004AB1206850E8030F216820F4807041E83E
:101F20000302002ADAD1206850E8050F216820F06A
:101F3000010041E80502DAB1206850E8050F216888
:101F400020F0010041E8050292B1206850E8050F39
:101F5000216820F0010041E805024AB1206850E8FC
:101F6000050F216820F0010041E80502002ADAD1BE
:101F7000206850E8050F216820F0400041E8050284
:101F8000DAB1206850E8050F216820F0400041E8F0
:101F9000050292B1206850E8050F216820F040004A
:101FA00041E805024AB1206850E8050F216820F099
:101FB000400041E80502002ADAD1202084F84200DE
:101FC00000202063206850E8030F216820F01000F3
:101FD00041E80302DAB1206850E8030F216820F0DD
:101FE000100041E8030292B1206850E8030F216815
:101FF00020F0100041E803024AB1206850E8030FC6
:10200000216820F0100041E80302002ADAD1E06BD9
:10201000FEF7BAFB02206063A08DE18D401A81B209
:10202000204674E1626C42F0010262644A0706D500
:10203000BEF1000F03D0626C42F0020262648A07B4
:1020400006D5BEF1000F03D0626C42F00402626458
:10205000BCF1000F09D545EA0E02B2FA82F252092C
:1020600003D1626C42F008026264626C002A3FF4A1
:102070001BAF11F0200118BF002D03D0204600F047
:102080005FFE20684069616C00F0400001F00801CB
:10209000401800F0B58000BF206850E8030F2168A9
:1020A00020F4907041E80302BAB3206850E8030FAF
:1020B000216820F4907041E8030272B3206850E870
:1020C000030F216820F4907041E803022AB32068CE
:1020D00050E8030F216820F4907041E80302002AC1
:1020E000DAD11AE0206850E8050F216820F00100DD
:1020F00041E80502DAB1206850E8050F216820F0B8
:10210000010041E8050292B1206850E8050F2168FE
:1021100020F0010041E805024AB1206850E8050FAF
:10212000216820F0010041E80502002ADAD1206B85
:10213000012824D1206850E8030F216820F0100006
:1021400041E80302DAB1206850E8030F216820F06B
:10215000100041E8030292B1206850E8030F2168A3
:1021600020F0100041E803024AB1206850E8030F54
:10217000216820F0100041E80302002ADAD1202073
:1021800084F84200002020632068406940063FD563
:10219000206850E8050F216820F0400041E8050262
:1021A000DAB1206850E8050F216820F0400041E8CE
:1021B000050292B1206850E8050F216820F0400028
:1021C00041E805024AB1206850E8050F216820F077
:1021D000400041E80502002ADAD1E06BC0B142F6C6
:1021E0004121C0F600014163FEF7F2FA00283FF4F6
:1021F0005BAEE06B416B02B0BDE8B040084700BF8A
:102200002046FFF7DFFD0020606402B0B0BD00BFD4
:10221000204602B0BDE8B040FFF7D4BD401A2168A7
:1022200051E8031F226821F4907142E80313DBB1E7
:10223000216851E8031F226821F4907142E80313DA
:1022400093B1216851E8031F226821F4907142E89C
:1022500003134BB1216851E8031F226821F49071E8
:1022600042E80313002BDAD1216851E8051F2268E8
:1022700021F0010142E80513DBB1216851E8051F97
:10228000226821F0010142E8051393B1216851E869
:10229000051F226821F0010142E805134BB12168B6
:1022A00051E8051F226821F0010142E80513002BC7
:1022B000DAD1202184F8421000212163216851E8FD
:1022C000031F226821F0100142E80313DBB12168EB
:1022D00051E8031F226821F0100142E8031393B173
:1022E000216851E8031F226821F0100142E803131E
:1022F0004BB1216851E8031F226821F0100142E828
:102300000313002BDAD1022281B22046626302B0AD
:10231000BDE8B040FFF754BD216A31F8022B6FF3DE
:102320005F22426021628CE5002804BF01207047D3
:1023300010B5044690F8410028B9002084F8400008
:10234000204600F063F8242084F841002068D4E996
:102350000212C36823F40053C360036923F440539B
:102360001A430261D4E904231143C268194341F2BC
:102370000C639A431143C1604169A26921F4407121
:10238000114343F60002C4F201029042416103D0BE
:10239000FEF786FE02E000BFFEF796FE6268192196
:1023A00048439100B0FBF1F048F21F51C5F2EB1128
:1023B000A0FB01235A094FF69C73C0F6FF7302FB82
:1023C0000300322303EB0010A0FB0101F02303EA1A
:1023D0005113206803EB0212C1F3431111448160D1
:1023E000016921F490410161416921F02A014161B3
:1023F000C16841F40051C16000202021606484F86C
:10240000411084F84210606310BD00002DE9F041D6
:1024100086B00446006844F20041C4F20001002680
:1024200088420596CDE90366029663D044F6000122
:10243000C4F20001884200F0918043F60001C4F22A
:102440000101884240F0C08041F21807C4F202073F
:10245000386840F6000540F4804038603868C4F2BF
:10246000010500F480400190019838680DF10808DA
:1024700040F0040038603868414600F004000190E4
:1024800001984FF400700290022003900320059001
:102490002846FEF759FB4FF480600290002628463C
:1024A0004146CDE90366FEF74FFB40F20415A7F560
:1024B0007C60C2F2000580212022C5E90006284682
:1024C000C5E90261C5E90466C5E90626FEF7AAFA70
:1024D000002818BFFDF7C6FE252000210022E56375
:1024E0006C62FEF7C1FC2520FEF7AAFC06B0BDE831
:1024F000F08100BF41F21C00C4F20200016840F606
:10250000000441F4003101600068C4F2010400F4E9
:1025100000300190019841F21800C4F202000168F5
:1025200002AD41F0040101600068294600F004009A
:10253000019001980420029002200390032005904E
:102540002046FEF701FB0820CDE902062046294679
:102550000496FEF7F9FA06B0BDE8F08141F21C00DE
:10256000C4F20200016802AD41F4802101600068FC
:1025700000F480200190019841F21800C4F202009A
:10258000016841F0080101600068294600F0080078
:10259000019001984FF48060029002200390032084
:1025A000059040F60000C4F2010000F5806420466A
:1025B000FEF7CAFA4FF4006002900020CDE9030054
:1025C00020462946FEF7C0FA06B0BDE8F0810000BB
:1025D00070B582B0044690F8420020280AD1134614
:1025E0000A4600294FF0010018BF002B06D102B0A7
:1025F00070BD00BF022002B070BD00BF00252220C8
:102600002563A262A385656484F842002168E06BBB
:1026100042F6C93C42F6295E42F64D26C0F6000C51
:10262000C0F6000EC0F600060431C0E90ACEC0E9CB
:102630000C65FEF73BFA019520680168019140683E
:1026400001900198206928B3206850E8030F2168A1
:1026500040F4807041E80302E2B1206850E8030FC3
:10266000216840F4807041E803029AB1206850E884
:10267000030F216840F4807041E8030252B12068E2
:1026800050E8030F216840F4807041E80302002AFB
:10269000DAD100BF206850E8050F216840F0010042
:1026A00041E80502E2B1206850E8050F216840F0DA
:1026B000010041E805029AB1206850E8050F216841
:1026C00040F0010041E8050252B1206850E8050FD2
:1026D000216840F0010041E80502002ADAD100BF7C
:1026E000206850E8050F216840F0400041E80502ED
:1026F000DAB1206850E8050F216840F0400041E859
:10270000050292B1206850E8050F216840F04000B2
:1027100041E805024AB1206850E8050F216840F001
:10272000400041E80502002ADAD1002002B070BD65
:10273000704700007047000070470000FEE700008F
:1027400080B540F2DC0046F20041C2F20000C4F263
:1027500000010023102280E80E00C0E90333C0E925
:1027600005338383FDF70AFF002808BF80BDBDE85D
:102770008040FDF777BD000080B582B041F21400C3
:10278000C4F202000168002241F00101016000680A
:10279000002100F00100019001980F20FEF764FB7A
:1027A0000F2002B0BDE88040FEF74ABB83B041F283
:1027B0001800C4F20200016841F0200101600168C4
:1027C00001F0200102910299016841F004010160C9
:1027D000016801F0040101910199016841F00801CB
:1027E0000160006800F008000090009803B0704796
:1027F00080B586B040F248100021C2F200004FF0D0
:10280000804241F61F4340F2F31C0591CDE90311CC
:10281000CDE90011C0E90023C0E9021C016181611A
:10282000FEF798FE002818BFFDF71CFD4FF48050FE
:10283000029040F24810C2F2000002A9FEF760FFC9
:10284000002818BFFDF70EFD40F24810C2F200004C
:102850006946FEF741FE002818BFFDF703FD06B0EC
:1028600080BD0000B0B590B040F6000540F2901079
:10287000C4F200050021C2F200004FF6FF72CDE95C
:102880000811CDE90611CDE90411C0E90051C0E9F4
:10289000021201618161FFF7B3F9002818BFFDF74B
:1028A000E1FC40F29010C2F2000008A9FEF714FE0D
:1028B000002818BFFDF7D6FC602001900020CDE96C
:1028C0000200059040F29010C2F2000001A900221F
:1028D000FFF790F8002818BFFDF7C4FC40F29010F5
:1028E000C2F2000001A90422FFF784F8002818BFF3
:1028F000FDF7B8FC40F29010C2F2000001A90822D6
:10290000FFF778F8002818BFFDF7ACFC40F29014F0
:10291000C2F2000401A920460C22FFF76BF8002840
:1029200018BFFDF79FFC20680021A8420E9101D03E
:1029300010B0B0BD41F21800C4F20200016841F0CD
:102940000801016000680CA900F008000B900B98CA
:102950004FF470700C9002200D900F9005F58230AE
:10296000FEF7F2F810B0B0BD80B540F2D81043F6D3
:102970000001C2F20000C4F2010100234FF00C0C70
:102980004FF4165280E80E00C0E90333C0E905C3D6
:10299000C361FFF7C9FC002808BF80BDBDE88040C7
:1029A000FDF760BC80B540F2202044F20041C2F245
:1029B0000000C4F2000100234FF00C0C4FF4E13290
:1029C00080E80E00C0E90333C0E905C3C361FFF727
:1029D000ABFC002808BF80BDBDE88040FDF742BCCD
:1029E00080B540F2682044F60001C2F20000C4F253
:1029F000000100234FF00C0C4FF4E13280E80E0090
:102A0000C0E90333C0E905C3C361FFF78DFC0028AB
:102A100008BF80BDBDE88040FDF724BCFEE7000094
:102A2000FEE700007047000070470000FEF7A0B905
:102A30007047000040F24810C2F20000FEF730BFBD
:102A4000406A0021C185C184FFF7BCB9406A0168B2
:102A50004A6990F84130212B2DD112F080022AD002
:102A60000021C184016851E8031F026821F0C00100
:102A700042E80313DBB1016851E8031F026821F04B
:102A8000C00142E8031393B1016851E8031F0268D3
:102A900021F0C00142E803134BB1016851E8031F64
:102AA000026821F0C00142E80313002BDAD1202193
:102AB00080F841100168496990F84220222A40F0CC
:102AC0007D8011F0400179D00021C185016851E875
:102AD000031F026821F4907142E80313BBB301683D
:102AE00051E8031F026821F4907142E8031373B3A5
:102AF000016851E8031F026821F4907142E8031352
:102B00002BB3016851E8031F026821F4907142E879
:102B10000313002BDAD11AE0016851E8051F02689F
:102B200021F0010142E80513DBB1016851E8051FFE
:102B3000026821F0010142E8051393B1016851E8F0
:102B4000051F026821F0010142E805134BB101683D
:102B500051E8051F026821F0010142E80513002B2E
:102B6000DAD1016B012924D1016851E8031F026801
:102B700021F0100142E80313DBB1016851E8031FA3
:102B8000026821F0100142E8031393B1016851E893
:102B9000031F026821F0100142E803134BB10168E2
:102BA00051E8031F026821F0100142E80313002BD3
:102BB000DAD1202180F8421000210163416C41F0FC
:102BC00010014164FFF7FEB80168406A0968890690
:102BD00000F19F800021C185016851E8031F026850
:102BE00021F4807142E80313E3B1016851E8031F47
:102BF000026821F4807142E803139BB1016851E837
:102C0000031F026821F4807142E8031353B1016885
:102C100051E8031F026821F4807142E80313002B7E
:102C2000DAD100BF016851E8051F026821F00101F7
:102C300042E80513BBB3016851E8051F026821F0A3
:102C4000010142E8051373B3016851E8051F0268EA
:102C500021F0010142E805132BB3016851E8051F7B
:102C6000026821F0010142E80513002BDAD11AE0D5
:102C7000016851E8051F026821F0400142E8051390
:102C8000DBB1016851E8051F026821F0400142E80C
:102C9000051393B1016851E8051F026821F0400156
:102CA00042E805134BB1016851E8051F026821F0A5
:102CB000400142E80513002BDAD1202180F84210B0
:102CC000016B012925D100BF016851E8031F02688B
:102CD00021F0100142E80313DBB1016851E8031F42
:102CE000026821F0100142E8031393B1016851E832
:102CF000031F026821F0100142E803134BB1016881
:102D000051E8031F026821F0100142E80313002B71
:102D1000DAD100214163016B012918BFFFF708BD1B
:102D2000818DFFF74DB80000406A01214163016BBE
:102D3000012918BFFFF7FEBC818D4908FFF740B895
:102D400081B090F84210222921D183680246B3F560
:102D5000805F09D152F8281F52F8183C002B63D02D
:102D600003685B680AE000BF52F8281F13B90369C3
:102D7000002BF5D003685B6803F07F030B701168CC
:102D800001311160C18D01390A04C18502D001B041
:102D9000704700BF0168CA6822F02002CA60CA6892
:102DA00022F48072CA604A6922F001024A6120213D
:102DB00080F8421000214163026B012A3CD101637B
:102DC000016851E8031F026821F0100142E8031373
:102DD000DBB1016851E8031F026821F0100142E8ED
:102DE000031393B1016851E8031F026821F0100139
:102DF00042E803134BB1016851E8031F026821F058
:102E0000100142E80313002BDAD101680A68D206E8
:102E100006D5002200920A68009249680091009944
:102E2000818D01B0FEF7CCBF026852686FF35F225C
:102E300021F8022B8162A5E701B0FFF779BC000001
:102E400040F2D810C2F20000FEF7BEBFFEE700005D
:102E500090B0FDF79BFF00240120CDE90B44CDE9A4
:102E6000094406900A904FF4E0104FF48031022597
:102E70000F9006A8CDE90714CDE90D51FEF738F9FA
:102E800020B1EFF3108072B6FEE700BF0F20CDE94E
:102E900001054FF48060CDE9040401A802210394E8
:102EA000FEF71EF820B1EFF3108072B6FEE700BF08
:102EB000FFF77CFCFFF760FCFFF742FCFFF798FC94
:102EC000FFF7D0FCFFF750FDFFF76CFDFFF788FD23
:102ED00040F24810C2F20000FEF7DAFB40F2D810D0
:102EE00040F2B421C2F20000C2F200018022FFF7DA
:102EF0006FFB40F2DC00C2F20000FDF709FC00BFEE
:102F0000FEE700002DE9F04F40F2D81340F27001C7
:102F1000C2F20003C2F200010022DB6B4A701A68A1
:102F200040F20C0C5268C2F2000CC2F180088A8890
:102F30001FFA88F3A1F80280934238BF80339F1AAA
:102F4000D1E90462BCF800A007EB060EAEEB4A051F
:102F5000AA42C1F810E00BDBAEEB0A044FF0000907
:102F6000A24226DD5FFA89F0A1F80480BDE8F08F67
:102F70004FEA4A060AEB4A0902EB0A04AC420DDAB0
:102F8000B718AF420CDA4A44AA420BDA04EB0A0241
:102F900052445244AA42EFDB04E000BF224601E063
:102FA00002EB4A024A61AEEB0A044FF00009A2426A
:102FB000D8DC40F2B428C2F2000809E08B69013283
:102FC00001334A618B61AEEB0A039A4200F3A3809E
:102FD000D51702EB556525F07F05551BAFB218F8E4
:102FE00007606F1CA52ECD800F81E7D105F10A0681
:102FF00006F07F0618F806605A2EDFD1BEB27F2E8B
:103000003E4688BFA5F17F06B5B2731C18F805B01F
:103010009DB27F2D88BFA6F17F039DB218F80550A1
:103020005E1CAB44B5B27F2D88BFA3F17F06731C35
:103030009DB27F2DB5B218F8055088BFA6F17F0369
:103040009EB218F806605D4405EB060B5E1CB5B237
:103050007F2D88BFA3F17F06731C9DB27F2DB5B273
:1030600018F8055088BFA6F17F039EB218F80660D5
:103070005D4405EB060B5E1CB5B27F2D88BFA3F146
:103080007F06731C9DB27F2DB5B218F8055088BF1E
:10309000A6F17F039EB218F806605D4435445E1CBD
:1030A000B4B27F2C88BFA3F17F06B3B218F8033007
:1030B000ECB29C420D70CE807FF480AF0822C1F844
:1030C0000A200246C86100BFBBB2802B24BF803FEC
:1030D0000F81BBB218F8033013700A898B89571C13
:1030E00001334A899EB29642CA690F8102F10102F8
:1030F000CA618B81E8D34A69BCF800A0D1F810E01E
:1031000052444FF001094A6181F80190AEEB0A0385
:103110009A427FF75DAFB1F802805FFA89F0A1F8BB
:103120000480BDE8F08F00000000000000000102F4
:10313000030406070809000000000102030401025D
:1031400002030405060708090A0B0C0D0E0F1010E8
:103150007031000800000020100000002801000865
:1031600080310008100000202809000044010008F8
:10317000010000001000000000127A000B000000A7
:04000005080000ED02
:00000001FF
